{
  "contractName": "Ballot",
  "abi": [
    {
      "inputs": [
        {
          "internalType": "bytes32[]",
          "name": "proposalNames",
          "type": "bytes32[]"
        }
      ],
      "stateMutability": "nonpayable",
      "type": "constructor"
    },
    {
      "inputs": [],
      "name": "chairperson",
      "outputs": [
        {
          "internalType": "address",
          "name": "",
          "type": "address"
        }
      ],
      "stateMutability": "view",
      "type": "function"
    },
    {
      "inputs": [
        {
          "internalType": "address",
          "name": "",
          "type": "address"
        }
      ],
      "name": "delegates",
      "outputs": [
        {
          "internalType": "uint32",
          "name": "weight",
          "type": "uint32"
        },
        {
          "internalType": "uint32",
          "name": "proposal_id",
          "type": "uint32"
        },
        {
          "internalType": "bool",
          "name": "voted",
          "type": "bool"
        }
      ],
      "stateMutability": "view",
      "type": "function"
    },
    {
      "inputs": [
        {
          "internalType": "uint256",
          "name": "",
          "type": "uint256"
        }
      ],
      "name": "proposals",
      "outputs": [
        {
          "internalType": "bytes32",
          "name": "name",
          "type": "bytes32"
        },
        {
          "internalType": "uint32",
          "name": "voteCount",
          "type": "uint32"
        }
      ],
      "stateMutability": "view",
      "type": "function"
    },
    {
      "inputs": [
        {
          "internalType": "address",
          "name": "",
          "type": "address"
        }
      ],
      "name": "voters",
      "outputs": [
        {
          "internalType": "bool",
          "name": "can_vote",
          "type": "bool"
        },
        {
          "internalType": "bool",
          "name": "voted",
          "type": "bool"
        },
        {
          "internalType": "address",
          "name": "delegate",
          "type": "address"
        }
      ],
      "stateMutability": "view",
      "type": "function"
    },
    {
      "inputs": [
        {
          "internalType": "address",
          "name": "voter",
          "type": "address"
        }
      ],
      "name": "giveRightToVote",
      "outputs": [],
      "stateMutability": "nonpayable",
      "type": "function"
    },
    {
      "inputs": [
        {
          "internalType": "address",
          "name": "to",
          "type": "address"
        }
      ],
      "name": "delegate",
      "outputs": [],
      "stateMutability": "nonpayable",
      "type": "function"
    },
    {
      "inputs": [
        {
          "internalType": "uint32",
          "name": "proposal",
          "type": "uint32"
        }
      ],
      "name": "vote",
      "outputs": [],
      "stateMutability": "nonpayable",
      "type": "function"
    },
    {
      "inputs": [],
      "name": "winningProposal",
      "outputs": [
        {
          "internalType": "uint256",
          "name": "winningProposal_",
          "type": "uint256"
        }
      ],
      "stateMutability": "view",
      "type": "function"
    },
    {
      "inputs": [],
      "name": "winnerName",
      "outputs": [
        {
          "internalType": "bytes32",
          "name": "winnerName_",
          "type": "bytes32"
        }
      ],
      "stateMutability": "view",
      "type": "function"
    }
  ],
  "bytecode": "0x60806040523480156200001157600080fd5b506040516200178d3803806200178d83398181016040528101906200003791906200037b565b33600160006101000a81548173ffffffffffffffffffffffffffffffffffffffff021916908373ffffffffffffffffffffffffffffffffffffffff160217905550600160026000600160009054906101000a900473ffffffffffffffffffffffffffffffffffffffff1673ffffffffffffffffffffffffffffffffffffffff1673ffffffffffffffffffffffffffffffffffffffff16815260200190815260200160002060000160006101000a81548160ff02191690831515021790555060005b8151811015620001af5760036040518060400160405280848481518110620001255762000124620003cc565b5b60200260200101518152602001600063ffffffff1681525090806001815401808255809150506001900390600052602060002090600202016000909190919091506000820151816000015560208201518160010160006101000a81548163ffffffff021916908363ffffffff16021790555050508080620001a69062000434565b915050620000f8565b505062000482565b6000604051905090565b600080fd5b600080fd5b600080fd5b6000601f19601f8301169050919050565b7f4e487b7100000000000000000000000000000000000000000000000000000000600052604160045260246000fd5b6200021b82620001d0565b810181811067ffffffffffffffff821117156200023d576200023c620001e1565b5b80604052505050565b600062000252620001b7565b905062000260828262000210565b919050565b600067ffffffffffffffff821115620002835762000282620001e1565b5b602082029050602081019050919050565b600080fd5b6000819050919050565b620002ae8162000299565b8114620002ba57600080fd5b50565b600081519050620002ce81620002a3565b92915050565b6000620002eb620002e58462000265565b62000246565b9050808382526020820190506020840283018581111562000311576200031062000294565b5b835b818110156200033e5780620003298882620002bd565b84526020840193505060208101905062000313565b5050509392505050565b600082601f83011262000360576200035f620001cb565b5b815162000372848260208601620002d4565b91505092915050565b600060208284031215620003945762000393620001c1565b5b600082015167ffffffffffffffff811115620003b557620003b4620001c6565b5b620003c38482850162000348565b91505092915050565b7f4e487b7100000000000000000000000000000000000000000000000000000000600052603260045260246000fd5b7f4e487b7100000000000000000000000000000000000000000000000000000000600052601160045260246000fd5b6000819050919050565b600062000441826200042a565b91507fffffffffffffffffffffffffffffffffffffffffffffffffffffffffffffffff821415620004775762000476620003fb565b5b600182019050919050565b6112fb80620004926000396000f3fe608060405234801561001057600080fd5b50600436106100935760003560e01c8063609ff1bd11610066578063609ff1bd146101355780639094c763146101535780639e7b8d611461016f578063a3ec138d1461018b578063e2ba53f0146101bd57610093565b8063013cf08b146100985780632e4176cf146100c9578063587cde1e146100e75780635c19a95c14610119575b600080fd5b6100b260048036038101906100ad9190610c4f565b6101db565b6040516100c0929190610cb4565b60405180910390f35b6100d161021f565b6040516100de9190610d1e565b60405180910390f35b61010160048036038101906100fc9190610d65565b610245565b60405161011093929190610dad565b60405180910390f35b610133600480360381019061012e9190610d65565b61029c565b005b61013d6106f7565b60405161014a9190610df3565b60405180910390f35b61016d60048036038101906101689190610e3a565b6107ab565b005b61018960048036038101906101849190610d65565b6109fe565b005b6101a560048036038101906101a09190610d65565b610b7c565b6040516101b493929190610e67565b60405180910390f35b6101c5610be0565b6040516101d29190610e9e565b60405180910390f35b600381815481106101eb57600080fd5b90600052602060002090600202016000915090508060000154908060010160009054906101000a900463ffffffff16905082565b600160009054906101000a900473ffffffffffffffffffffffffffffffffffffffff1681565b60006020528060005260406000206000915090508060000160009054906101000a900463ffffffff16908060000160049054906101000a900463ffffffff16908060000160089054906101000a900460ff16905083565b3373ffffffffffffffffffffffffffffffffffffffff168173ffffffffffffffffffffffffffffffffffffffff16141561030b576040517f08c379a000000000000000000000000000000000000000000000000000000000815260040161030290610f16565b60405180910390fd5b6000600260003373ffffffffffffffffffffffffffffffffffffffff1673ffffffffffffffffffffffffffffffffffffffff16815260200190815260200160002090508060000160009054906101000a900460ff1661039f576040517f08c379a000000000000000000000000000000000000000000000000000000000815260040161039690610f82565b60405180910390fd5b5b600073ffffffffffffffffffffffffffffffffffffffff16600260008473ffffffffffffffffffffffffffffffffffffffff1673ffffffffffffffffffffffffffffffffffffffff16815260200190815260200160002060000160029054906101000a900473ffffffffffffffffffffffffffffffffffffffff1673ffffffffffffffffffffffffffffffffffffffff161461050f57600260008373ffffffffffffffffffffffffffffffffffffffff1673ffffffffffffffffffffffffffffffffffffffff16815260200190815260200160002060000160029054906101000a900473ffffffffffffffffffffffffffffffffffffffff1691503373ffffffffffffffffffffffffffffffffffffffff168273ffffffffffffffffffffffffffffffffffffffff16141561050a576040517f08c379a000000000000000000000000000000000000000000000000000000000815260040161050190610fee565b60405180910390fd5b6103a0565b60008160000160006101000a81548160ff02191690831515021790555060018160000160016101000a81548160ff021916908315150217905550818160000160026101000a81548173ffffffffffffffffffffffffffffffffffffffff021916908373ffffffffffffffffffffffffffffffffffffffff16021790555060008060008473ffffffffffffffffffffffffffffffffffffffff1673ffffffffffffffffffffffffffffffffffffffff16815260200190815260200160002090508060000160089054906101000a900460ff161561066757600160038260000160049054906101000a900463ffffffff1663ffffffff16815481106106155761061461100e565b5b906000526020600020906002020160010160008282829054906101000a900463ffffffff16610644919061106c565b92506101000a81548163ffffffff021916908363ffffffff1602179055506106f2565b60008160000160009054906101000a900463ffffffff1663ffffffff1614156106af5760018160000160006101000a81548163ffffffff021916908363ffffffff1602179055505b60018160000160008282829054906101000a900463ffffffff166106d3919061106c565b92506101000a81548163ffffffff021916908363ffffffff1602179055505b505050565b6000806000905060005b6003805490508110156107a65781600382815481106107235761072261100e565b5b906000526020600020906002020160010160009054906101000a900463ffffffff1663ffffffff16111561079357600381815481106107655761076461100e565b5b906000526020600020906002020160010160009054906101000a900463ffffffff1663ffffffff1691508092505b808061079e906110a6565b915050610701565b505090565b60008060003373ffffffffffffffffffffffffffffffffffffffff1673ffffffffffffffffffffffffffffffffffffffff168152602001908152602001600020905060008160000160009054906101000a900463ffffffff1663ffffffff161480156108645750600160009054906101000a900473ffffffffffffffffffffffffffffffffffffffff1673ffffffffffffffffffffffffffffffffffffffff163373ffffffffffffffffffffffffffffffffffffffff16145b1561088e5760018160000160006101000a81548163ffffffff021916908363ffffffff1602179055505b60008160000160009054906101000a900463ffffffff1663ffffffff1614156108ec576040517f08c379a00000000000000000000000000000000000000000000000000000000081526004016108e39061113b565b60405180910390fd5b8060000160089054906101000a900460ff161561093e576040517f08c379a0000000000000000000000000000000000000000000000000000000008152600401610935906111a7565b60405180910390fd5b60018160000160086101000a81548160ff021916908315150217905550818160000160046101000a81548163ffffffff021916908363ffffffff1602179055508060000160009054906101000a900463ffffffff1660038363ffffffff16815481106109ad576109ac61100e565b5b906000526020600020906002020160010160008282829054906101000a900463ffffffff166109dc919061106c565b92506101000a81548163ffffffff021916908363ffffffff1602179055505050565b600160009054906101000a900473ffffffffffffffffffffffffffffffffffffffff1673ffffffffffffffffffffffffffffffffffffffff163373ffffffffffffffffffffffffffffffffffffffff1614610a8e576040517f08c379a0000000000000000000000000000000000000000000000000000000008152600401610a8590611239565b60405180910390fd5b600260008273ffffffffffffffffffffffffffffffffffffffff1673ffffffffffffffffffffffffffffffffffffffff16815260200190815260200160002060000160009054906101000a900460ff1615610b1e576040517f08c379a0000000000000000000000000000000000000000000000000000000008152600401610b15906112a5565b60405180910390fd5b6001600260008373ffffffffffffffffffffffffffffffffffffffff1673ffffffffffffffffffffffffffffffffffffffff16815260200190815260200160002060000160006101000a81548160ff02191690831515021790555050565b60026020528060005260406000206000915090508060000160009054906101000a900460ff16908060000160019054906101000a900460ff16908060000160029054906101000a900473ffffffffffffffffffffffffffffffffffffffff16905083565b60006003610bec6106f7565b81548110610bfd57610bfc61100e565b5b906000526020600020906002020160000154905090565b600080fd5b6000819050919050565b610c2c81610c19565b8114610c3757600080fd5b50565b600081359050610c4981610c23565b92915050565b600060208284031215610c6557610c64610c14565b5b6000610c7384828501610c3a565b91505092915050565b6000819050919050565b610c8f81610c7c565b82525050565b600063ffffffff82169050919050565b610cae81610c95565b82525050565b6000604082019050610cc96000830185610c86565b610cd66020830184610ca5565b9392505050565b600073ffffffffffffffffffffffffffffffffffffffff82169050919050565b6000610d0882610cdd565b9050919050565b610d1881610cfd565b82525050565b6000602082019050610d336000830184610d0f565b92915050565b610d4281610cfd565b8114610d4d57600080fd5b50565b600081359050610d5f81610d39565b92915050565b600060208284031215610d7b57610d7a610c14565b5b6000610d8984828501610d50565b91505092915050565b60008115159050919050565b610da781610d92565b82525050565b6000606082019050610dc26000830186610ca5565b610dcf6020830185610ca5565b610ddc6040830184610d9e565b949350505050565b610ded81610c19565b82525050565b6000602082019050610e086000830184610de4565b92915050565b610e1781610c95565b8114610e2257600080fd5b50565b600081359050610e3481610e0e565b92915050565b600060208284031215610e5057610e4f610c14565b5b6000610e5e84828501610e25565b91505092915050565b6000606082019050610e7c6000830186610d9e565b610e896020830185610d9e565b610e966040830184610d0f565b949350505050565b6000602082019050610eb36000830184610c86565b92915050565b600082825260208201905092915050565b7f53656c662d64656c65676174696f6e20697320646973616c6c6f7765642e0000600082015250565b6000610f00601e83610eb9565b9150610f0b82610eca565b602082019050919050565b60006020820190508181036000830152610f2f81610ef3565b9050919050565b7f596f7520616c726561647920766f7465642e0000000000000000000000000000600082015250565b6000610f6c601283610eb9565b9150610f7782610f36565b602082019050919050565b60006020820190508181036000830152610f9b81610f5f565b9050919050565b7f466f756e64206c6f6f7020696e2064656c65676174696f6e2e00000000000000600082015250565b6000610fd8601983610eb9565b9150610fe382610fa2565b602082019050919050565b6000602082019050818103600083015261100781610fcb565b9050919050565b7f4e487b7100000000000000000000000000000000000000000000000000000000600052603260045260246000fd5b7f4e487b7100000000000000000000000000000000000000000000000000000000600052601160045260246000fd5b600061107782610c95565b915061108283610c95565b92508263ffffffff0382111561109b5761109a61103d565b5b828201905092915050565b60006110b182610c19565b91507fffffffffffffffffffffffffffffffffffffffffffffffffffffffffffffffff8214156110e4576110e361103d565b5b600182019050919050565b7f486173206e6f20726967687420746f20766f7465000000000000000000000000600082015250565b6000611125601483610eb9565b9150611130826110ef565b602082019050919050565b6000602082019050818103600083015261115481611118565b9050919050565b7f416c726561647920766f7465642e000000000000000000000000000000000000600082015250565b6000611191600e83610eb9565b915061119c8261115b565b602082019050919050565b600060208201905081810360008301526111c081611184565b9050919050565b7f4f6e6c79206368616972706572736f6e2063616e20676976652072696768742060008201527f746f20766f74652e000000000000000000000000000000000000000000000000602082015250565b6000611223602883610eb9565b915061122e826111c7565b604082019050919050565b6000602082019050818103600083015261125281611216565b9050919050565b7f54686520766f74657220616c726561647920766f7465642e0000000000000000600082015250565b600061128f601883610eb9565b915061129a82611259565b602082019050919050565b600060208201905081810360008301526112be81611282565b905091905056fea2646970667358221220cc1514369b31614aa3989def908e733a76c66fe9fe807b3982ad6b8e806e04bd64736f6c634300080a0033",
  "immutableReferences": {},
  "source": "// SPDX-License-Identifier: GPL-3.0\npragma solidity >=0.7.0 <0.9.0;\n/// @title Voting with delegation.\ncontract Ballot {\n    // This declares a new complex type which will\n    // be used for variables later.\n    // It will represent a single voter. Each voter can only delegate their vote. If they wanna vote they become delegators\n    struct Voter{\n        bool can_vote;\n        bool voted; // preventing chairperson from cheating\n        address delegate;\n    }\n\n    // Delegators accumulate votes sent to t\n    struct Delegate{\n        uint32 weight;\n        uint32 proposal_id;\n        bool voted;\n    }\n\n    mapping(address => Delegate) public delegates;\n    // This is a type for a single proposal.\n    struct Proposal {\n        bytes32 name;   // short name (up to 32 bytes)\n        uint32 voteCount; // number of accumulated votes (assuming max about 4Bi votes)\n    }\n\n    address public chairperson;\n\n    // This declares a state variable that\n    // stores a `Voter` struct for each possible address.\n    mapping(address => Voter) public voters;\n\n    // A dynamically-sized array of `Proposal` structs.\n    Proposal[] public proposals;\n\n    /// Create a new ballot to choose one of `proposalNames`.\n    constructor(bytes32[] memory proposalNames) {\n        chairperson = msg.sender;\n        voters[chairperson].can_vote = true;\n\n        // For each of the provided proposal names,\n        // create a new proposal object and add it\n        // to the end of the array.\n        for (uint i = 0; i < proposalNames.length; i++) {\n            // `Proposal({...})` creates a temporary\n            // Proposal object and `proposals.push(...)`\n            // appends it to the end of `proposals`.\n            proposals.push(Proposal({\n                name: proposalNames[i],\n                voteCount: 0\n            }));\n        }\n    }\n\n    // Give `voter` the right to vote on this ballot.\n    // May only be called by `chairperson`.\n    function giveRightToVote(address voter) external {\n        // If the first argument of `require` evaluates\n        // to `false`, execution terminates and all\n        // changes to the state and to Ether balances\n        // are reverted.\n        // This used to consume all gas in old EVM versions, but\n        // not anymore.\n        // It is often a good idea to use `require` to check if\n        // functions are called correctly.\n        // As a second argument, you can also provide an\n        // explanation about what went wrong.\n        require(\n            msg.sender == chairperson,\n            \"Only chairperson can give right to vote.\"\n        );\n        require(\n            !voters[voter].can_vote,\n            \"The voter already voted.\"\n        );\n        voters[voter].can_vote = true;\n    }\n\n    /// Delegate your vote to the voter `to`.\n    function delegate(address to) external {\n        require(to != msg.sender, \"Self-delegation is disallowed.\");\n\n        // assigns reference\n        Voter storage sender = voters[msg.sender];\n        require(sender.can_vote, \"You already voted.\");\n\n        // Forward the delegation as long as\n        // `to` also delegated.\n        // In general, such loops are very dangerous,\n        // because if they run too long, they might\n        // need more gas than is available in a block.\n        // In this case, the delegation will not be executed,\n        // but in other situations, such loops might\n        // cause a contract to get \"stuck\" completely.\n        while (voters[to].delegate != address(0)) {\n            to = voters[to].delegate;\n\n            // We found a loop in the delegation, not allowed.\n            require(to != msg.sender, \"Found loop in delegation.\");\n        }\n\n        sender.can_vote = false;\n        sender.voted = true;\n        sender.delegate = to;\n\n        Delegate storage delegate_ = delegates[to];\n        \n        if (delegate_.voted) {\n            // If the delegate already voted,\n            // directly add to the number of votes\n            proposals[delegate_.proposal_id].voteCount += 1;\n        } else {\n            // If the delegate did no vote yet,\n            // add to her weight.\n            if (delegate_.weight == 0) {\n                delegate_.weight = 1; // delegates have their own votes\n            }\n            delegate_.weight += 1;\n        }\n    }\n\n    /// Give your vote (including votes delegated to you)\n    /// to proposal `proposals[proposal].name`.\n    function vote(uint32 proposal) external {\n        Delegate storage sender = delegates[msg.sender];\n        if (sender.weight == 0 && msg.sender == chairperson) {\n            sender.weight = 1;\n        }\n        require(sender.weight != 0, \"Has no right to vote\");\n        require(!sender.voted, \"Already voted.\");\n        sender.voted = true;\n        sender.proposal_id = proposal;\n\n        // If `proposal` is out of the range of the array,\n        // this will throw automatically and revert all\n        // changes.\n        proposals[proposal].voteCount += sender.weight;\n    }\n\n    /// @dev Computes the winning proposal taking all\n    /// previous votes into account.\n    function winningProposal() public view\n            returns (uint winningProposal_)\n    {\n        uint winningVoteCount = 0;\n        for (uint p = 0; p < proposals.length; p++) {\n            if (proposals[p].voteCount > winningVoteCount) {\n                winningVoteCount = proposals[p].voteCount;\n                winningProposal_ = p;\n            }\n        }\n    }\n\n    // Calls winningProposal() function to get the index\n    // of the winner contained in the proposals array and then\n    // returns the name of the winner\n    function winnerName() external view\n            returns (bytes32 winnerName_)\n    {\n        winnerName_ = proposals[winningProposal()].name;\n    }\n}\n",
  "sourcePath": "/home/semar/Projects/zku/assignment_0/ballot_new/contracts/Ballot.sol",
  "compiler": {
    "name": "solc",
    "version": "0.8.10+commit.fc410830.Emscripten.clang"
  },
  "schemaVersion": "3.4.4",
  "updatedAt": "2021-12-27T15:35:24.741Z",
  "devdoc": {
    "kind": "dev",
    "methods": {
      "winningProposal()": {
        "details": "Computes the winning proposal taking all previous votes into account."
      }
    },
    "title": "Voting with delegation.",
    "version": 1
  },
  "userdoc": {
    "kind": "user",
    "methods": {
      "constructor": {
        "notice": "Create a new ballot to choose one of `proposalNames`."
      },
      "delegate(address)": {
        "notice": "Delegate your vote to the voter `to`."
      },
      "vote(uint32)": {
        "notice": "Give your vote (including votes delegated to you) to proposal `proposals[proposal].name`."
      }
    },
    "version": 1
  }
}